S00F000072616E646F6D322E7372656362
S11300000C945A000C9479000C94A1000C94770081
S11300100C9477000C9477000C9477000C94770080
S11300200C9477000C9477000C9477000C94770070
S11300300C9477000C9477000C9477000C94770060
S11300400C9477000C9477000C9477000C94DC00EB
S11300500C9477000C9477000C94C9000C947700EE
S11300600C9477000C9477000C9477000C94770030
S11300700C9477000C94EF000C9477000C947700A8
S11300800C9477000C9477000C9477000C94770010
S11300900C9477000C9477000C9477000C94770000
S11300A00C9477000C9477000C9477000C947700F0
S11300B00C94770011241FBECFEFD8E0DEBFCDBF74
S11300C011E0A0E0B1E0E8EFFBE602C005900D927C
S11300D0A430B107D9F721E0A4E0B1E001C01D923A
S11300E0A430B207E1F70E9402010C94FA350C9493
S11300F000001F920F9200905F000F9211242F9323
S11301003F938F939F93EF93FF93CF93DF93CDB759
S1130110DEB78DE390E02DE330E0F90120812E7FFE
S1130120FC0120830000DF91CF91FF91EF919F911B
S11301308F913F912F910F9000925F000F901F902D
S113014018951F920F9200905F000F9211242F9325
S11301503F938F939F93EF93FF93CF93DF93CDB709
S1130160DEB78DE390E02DE330E0F90120812D7FAF
S1130170FC0120830000DF91CF91FF91EF919F91CB
S11301808F913F912F910F9000925F000F901F90DD
S113019018951F920F9200905F000F921124CF9335
S11301A0DF93CDB7DEB70000DF91CF910F900092BF
S11301B05F000F901F9018951F920F9200905F00A0
S11301C00F921124CF93DF93CDB7DEB70000DF91F8
S11301D0CF910F9000925F000F901F9018951F927F
S11301E00F9200905F000F921124CF93DF93CDB74D
S11301F0DEB70000DF91CF910F9000925F000F9067
S11302001F901895CF93DF93CDB7DEB788EA9CE1B2
S11302100E948C3501F007E10093150202E000937F
S11302201602F3FCA8958103B09372080E94C634A9
S1130230D529254066F8713372943E597C967280B4
S1130240AA45A895C198B1941091F405400303FA06
S113025000000E94FF340E940434B6940E94C63405
S113026098990B7410A90E945334A594A895769478
S1130270369DC027001A9E9F0E946A347881A094FC
S11302803C99A895F7FDD29500000E94FF340E9486
S11302900434A41677F9BC901795A89553335EA837
S11302A0D5F9E4F80E948D349195A419F7E6D72A7C
S11302B00E947F34EC98A895A895F199050A00004E
S11302C00E94FF340E94043456950E943234140272
S11302D00E947F349301D694B093B804C40E1821BD
S11302E094992B02C8956D1D0B0D6D03B3575D1EBC
S11302F00E947F342112749100000E94FF340E94F6
S11303000434B25ADF037290F09059028006BE1D85
S11303109A93509071060E945C345695479F1A98A0
S11303202004C8948092A902929B0E945334CC87E3
S1130330571A700600000E94FF340E940434A1F989
S11303407C9A0E9453340E947F34F0904D07909021
S11303506005498CD81A45FD86AD9695A188580646
S1130360D6FCC753E42208940E945C3480996C0440
S113037000000E94FF340E9404340E946A34B0FEDC
S1130380E09455FB016F398046530E948D349D28BB
S11303905E033880E093B3010E9432340E948D34AE
S11303A07111ED9CA895C75CA895549000000E941B
S11303B0FF340E9404347A03580E8094A4FBB09551
S11303C00E944034A5958E9D0E946A34C894BA2731
S11303D0923ABC9A69996A900E9440340E946A34A5
S11303E0C398E5A9541500000E94FF340E94043408
S11303F00E945C340E947F349C192D173403709042
S11304008C03A895EC0F90807F9ACE96889BA89435
S1130410B7160E9440341F2E25010622F9B20E940D
S11304207F3400000E94FF340E94043454F90E9477
S11304304034E51EE4FF75950D5DA6B00E947F343F
S1130440B0200E5F39050E943234121615FF439610
S1130450BA3C424EA8951003C09500000E94FF3498
S11304600E94043435940303A894FF601B0725FFFE
S1130470137614FAB894961FCB100E945C349FEF45
S113048047940E948D34CA03C93F3A7C4302D52164
S113049000000E94FF340E9404340E94C6342703E3
S11304A0109E71FC06944F840095C590B1FC208287
S11304B08092BB03C0908007A8953894C19571942D
S11304C0A8954F030E946A34E12F00000E94FF3474
S11304D00E940434D88090037C540E9453344E0B01
S11304E0A8958894F894EA02730E0E945334E7F9AD
S11304F00E94323458087B98A8950E9440340E9488
S113050053341C99C98B00000E94FF340E940434A8
S1130510C0980E94C6348D103092F608C895211DEB
S11305200E94C634363BD9960E948D345125B59C21
S11305309399471F6D030E9453340E947F3416E53C
S1130540922A3FEF00000E94FF340E9404344A01C3
S113055017031308071F6894A895CEE0690359B7D9
S113056045FAAF01E5075894E2120E945C341594F1
S11305700E945C343FEFA094AD9B00000E94FF34C6
S11305800E940434A50103668F96542CA895A809EB
S1130590E409D69B0142BA0EB686A895FCAE2D9A04
S11305A0B594C7015A0F8C922796019500000E94BA
S11305B0FF340E940434102B129D929AA8951F3583
S11305C0458D24032D0E0E945C340E948D343A29FB
S11305D0F19535FD0103597951B64199E6FC04FAC8
S11305E0A50300000E94FF340E9404340E9440349A
S11305F00E94C634619AAD035FEF0E948D340E945D
S11306008D340E946A34EF02E1820E948D347A8133
S11306107D2BB8410E94C63482943102F9900E9425
S11306208D340091D50800000E94FF340E940434E8
S113063021990C51469515917B99A094E5902795A5
S1130640555AE7950E945C341703A8959C99B69473
S1130650D5B6BF0D2DEE1695602200000E94FF3422
S11306600E940434D0EF0E944034F403D51953FBA4
S1130670A895E88236952FEFFB0A3D036091D804D4
S1130680020269922288E90ED779A5AF3B0998073F
S113069000000E94FF340E9404340E945334451821
S11306A0939AD00325182C909EEA8094DBB334915E
S11306B05003F590558F7003458C1A98747EBE9B39
S11306C09A2C0E947F3400000E94FF340E9404345C
S11306D03195D69B459104901515E79BAFEFFFEF3D
S11306E020953193B70DE6F9A1940E947F340E94BE
S11306F053343801EC8BD080CA11859000000E94DD
S1130700FF340E940434411878A6520EA591BE1CF1
S11307102A9A32A970FBC74C0E02706455F99FEFF8
S11307206DEDF0F861B7DB409F24E7F8DB030000D0
S11307300E94FF340E940434BE2510904E020E9491
S11307408D346E9944FCD01710033091AE04B5FC7F
S11307500E94533482E69E988E88EF033E015291A4
S1130760382BB9926694C89500000E94FF340E9409
S113077004349FEF5F1DB0037595BF03A599A89539
S113078038944E9B0E94533495940FE35325A895B7
S11307907503A01E0E945334BB03059124910000ED
S11307A00E94FF340E9404340E948D34CB364A28C0
S11307B00E945C34A0925B05662E1C930E94C63492
S11307C06591C895CD4241FA0E9440345894D09521
S11307D01F29F4F8159070940F1200000E94FF3442
S11307E00E9404341B68A3FDCB0336F9869551940B
S11307F091AF8F960E945C34B07FF3656998C62CE4
S11308004404C8959591DE9BC10F58B71090BD0163
S113081000000E94FF340E9404348022989492477E
S11308207C923C033BB188720E947F34B49FAC98A5
S1130830A895DD030E94C634575F3203029544FA3B
S11308406E78FE05A91C00000E94FF340E94043447
S113085082FE34F874477F03C895D7250E946A3412
S1130860693440924607139A0E948D34019227FB03
S11308706A960E9432346503A8954E1BA895A895E4
S113088000000E94FF340E940434F0909D0480FC18
S1130890F695F081669F6102F894030678800E94C1
S11308A0C634DA9ADA03A903651AB0931303809461
S11308B0B0950C9B70950E946A3400000E94FF342E
S11308C00E940434589400940E946A3473FCE195A5
S11308D0891325FDA89592785594F5030E94533405
S11308E00E947F3474FDE092EE021094B9033190BB
S11308F02B66CAB500000E94FF340E94043490E1C4
S11309003405A103A8890E947F341294309195067E
S113091017FD0E945C348092FB03B0914904A895B2
S113092016F95D036369030EE4906794E8AF8F12D0
S113093000000E94FF340E940434B69FB7FFA091C8
S11309409B077477901B0E947F346695ED03A694F1
S1130950F095719B62950E945334DF9A40434C3E5C
S11309600E94C6340F99BD67181E00000E94FF3410
S11309700E940434E04C5F2A1D7EE8990E94C6342C
S1130980229410945602CD2C856E4A273894C3992C
S11309906F9E0E947F34DA03A895B7B60E94C634CE
S11309A03C1600000E94FF340E9404340F023FEF03
S11309B018268103658E6B8B8096C30D9F9A8126C2
S11309C08DAE2D64A895D81CD61A0E945C34A94318
S11309D00E9432341214055000000E94FF340E9419
S11309E00434F06A292610951F0B598A62F80E9474
S11309F0C63472955B14A89576950D8D6F500D03D2
S1130A0088949A035CA1C895A8959DB200000E94A1
S1130A10FF340E9404341A03A501409525815F0E1A
S1130A20150AE190A194A895A8950E9453349E09B3
S1130A30829592940E9432340FEF00921E01A20319
S1130A407702B69400000E94FF340E940434212AE5
S1130A50360C771E10950F9A8E9C0E945334C61044
S1130A6031950E945334582B463B91575595C89560
S1130A7001957205FF5D7194E32400000E94FF3428
S1130A800E940434BB160E943234029276B25D1B7B
S1130A90C8950E945C343B9CD0947809E2280E945B
S1130AA07F34A90387948D45629455037807899A06
S1130AB0D72400000E94FF340E940434E1949B0375
S1130AC0D4B2D0960E94533405A9E0154113509531
S1130AD087944632D2FBDF638F154CA8A895829584
S1130AE0B004A6F8119B00000E94FF340E94043455
S1130AF044ECCDAAA8957D9C08943D0377020E94FE
S1130B008D341FA7A8958403C40386FCB503AD29BF
S1130B10A98D2A9230030E945C348C8600000E94C6
S1130B20FF340E9404340E947F341591B89450908D
S1130B306407CC9624F8C19822F9A2959216779866
S1130B40B5958C960E945C34E09001024137B594CF
S1130B50C91AF602A0939A0800000E94FF340E946A
S1130B600434269AD794D5913D020E945334B81880
S1130B702F0314907213A20333FECE901294FFEF4E
S1130B800E948D34629B31A20E9440346C24259EC5
S1130B9000000E94FF340E940434C6959F0E67949F
S1130BA0099064E70E94C634D5B2B092640826075F
S1130BB071274C9AC4214E90AE01E0921805841D11
S1130BC08DA60E943234A895889400000E94FF34B8
S1130BD00E940434C894FA98A895A89498170E947F
S1130BE05C3471120E947F34429590900C0354B788
S1130BF07D59F4FA0E948D340E947F34B5940E948A
S1130C004034EE26C69895FB00000E94FF340E94F3
S1130C1004343091F00591FAA895A8954E999194D1
S1130C200FEFA8950E946A3462959A9DF3FD0E9485
S1130C305C347C8B960FF115A8950E945C34A3F864
S1130C40A89500000E94FF340E9404340E9453348B
S1130C50EB17531C3F3D8CB739254C985A99A895EE
S1130C60A895389474B6B794B2176D93F6954A98CC
S1130C70F09320060714A69A00000E94FF340E94F5
S1130C8004340D6637FC9284F080A7A79AE2949806
S1130C902004A6940E9432340E943234E41453FA9D
S1130CA0D16EA8957BA4819B0E94323472EF81940B
S1130CB000000E94FF340E9404345F17819C529B01
S1130CC0E135DD53B71CA9086928EA4F3D1363FADF
S1130CD030E4AAACE8948D290E943234A895A895F2
S1130CE01B1A360200000E94FF340E940434F79459
S1130CF00E945C34C30750931E03B4FB2A100E9465
S1130D00C6340E946A344263DFEFF50E26685FEF53
S1130D100E9453340A8BC992C89528943F03C69500
S1130D2000000E94FF340E940434A8955BA302E7EC
S1130D3046954D92FFEF7496147EF414C895F1987D
S1130D403D7C9C931C980E946A3447FA0B01F5631E
S1130D50D996289400000E94FF340E940434160798
S1130D60C89515301371690341F8A8950295539AF3
S1130D70ED2C24910E948D340E948D34AE011F9E6F
S1130D80475D5704F594E422269500000E94FF3441
S1130D900E9404348F37851F08942796E505F89838
S1130DA02491F094159814FF1909A603F8281D48F6
S1130DB04803DE1A52FB069B1090B501C69400004E
S1130DC00E94FF340E940434AEA291945092C10355
S1130DD0C894CC62F29C870E42940E9453340E94C1
S1130DE05C34CB13A898509053022930B41817954B
S1130DF0D096969416FD889400000E94FF340E94B9
S1130E000434E1924B960090610778038703AFEFB7
S1130E10FA925CB114010E946A347B1D719493228E
S1130E20C895375B0E948D34B894CD030093EF08C6
S1130E30569D00000E94FF340E9404340E946A34CC
S1130E40D1338E46A8958881F66C4601A7980E94F6
S1130E5053348F18DE9B7E9A0E948D34D594A895C6
S1130E601609146D0E944034410E544400000E943F
S1130E70FF340E9404342C0252959F9813B30E94AD
S1130E80C634A09A0E946A34071089080E9440342C
S1130E902615009405959D7B67234B7ABDE4065285
S1130EA09A03C29400000E94FF340E9404343491D7
S1130EB0550591F95D03BD8DB26E42986694B59067
S1130EC00E948D340E94C634F903C895E2FA229434
S1130ED03E129E93B331D1033EE500000E94FF34DD
S1130EE00E940434BF6DC2F80E948D34653960914C
S1130EF0E4080E946A34BF7DA8959FEFE2956D4196
S1130F000E943234E6F80E944034F5037B03490220
S1130F106093B805A895E09400000E94FF340E94F5
S1130F2004347923E0959F1A4A657C626103B425F1
S1130F30C3FA94FBE06D84245086FC23061CB5F8A8
S1130F40D1FBA121B50306E0D79400000E94FF3431
S1130F500E9404345C85A89585980E945C34E6035D
S1130F600E946A34629210935801AB214795D58F41
S1130F700E947F347E90AA15E1E3D49A0E946A34D9
S1130F807612D0914903D50300000E94FF340E94D9
S1130F90043447955A1EB502606E5EB692F80E94FC
S1130FA0C6349490B29B0E944034E31DD595537F80
S1130FB07FEF79016A67ED9AF694599AA895000033
S1130FC00E94FF340E9404340E9440340E945C3426
S1130FD01FEF0E946A34C195D8E70E9432344894C6
S1130FE0ADB3D02F749D54102090C30245163FEF2B
S1130FF00E945334BD99E6018617D59600000E94DD
S1131000FF340E94043405E9EA51D89ACC9A6277F5
S1131010FFEFA8954C1E0E9453344B440E94C634E3
S1131020B82662951D010E943234F9AFC594C89563
S11310305CB0729200000E94FF340E94043486FB6C
S1131040490307FC75940E945C34FD075E180E94F6
S1131050C634DE022E02D292709A0E94C6340E94D6
S113106053348881C895A8950E9440341795F0950B
S113107000000E94FF340E940434800E9A2E96FBD6
S11310807D1235323FEFA694A8952D92A895EE05D2
S1131090B7890E944034D095899B0E94C634F2954A
S11310A0A8955894912600000E94FF340E940434AD
S11310B09B2B5894D1FBD5037D99A3F8DE9B7C90A0
S11310C00E94C634772180FC0E947F342092610400
S11310D00E946A34509A1F15A895A794F6246C9020
S11310E000000E94FF340E940434A4988225302F0B
S11310F01894FA1F8894E79534FF26FEB1951C0BCB
S113110060B433FE96178999DC90569401060E94C8
S1131110C634ED0200000E94FF340E940434449A55
S11311200E9440340E9432347FEF942E55E910938C
S1131130C704522040FC041D81FCE3F8E5FB5FEF8B
S1131140B30425FE4C96F59F1E62B3B600000E94C0
S1131150FF340E94043474FBB695A59014A8782338
S113116008944294C91F28030E947F34D2940E9499
S11311707F3460918107F3F917240E947F341E990C
S1131180A895CC0B149900000E94FF340E940434EB
S11311900E9432340E94C6340E947F34E094D48387
S11311A05E2C999A0E947F34A895D905B613281607
S11311B05EA10E945334A89504910E945334BB50FD
S11311C00E948D34E60A00000E94FF340E94043419
S11311D0C40C7117A8958AACD894A895762FC70328
S11311E07502D695A895D203380315917106DD03CF
S11311F0AF7DDB96FD90C5FF00000E94FF340E9486
S113120004340E948D34A895CC6130918B02B1785E
S1131210FD10A894E0928502C3E1A895070D62FF32
S11312200F9ED5900E948D34A894FF390B2D4EEC5F
S1131230881F00000E94FF340E940434950949412C
S1131240A8956F9A0E94C6348092910536340E9404
S11312507F34A3F8B503B0F87BE9A8943F030E9458
S11312606A340E946A347A1C5A918803B09400004C
S11312700E94FF340E94043440180E94C6340E9425
S1131280C63463040E947F345E9222FC0E9432348E
S11312905B870E946A345A28377C9193E728D70BDE
S11312A0EB2E8591FE89E5AE851E00000E94FF3479
S11312B00E9404342896F1F9A093C903EB2388947F
S11312C0165A7090C904300FD34EA8955695BA0695
S11312D08701B8484D5CD090A7037DEA0E947F3413
S11312E0A895A19400000E94FF340E9404344E92F9
S11312F0211A72916420E145BD034602A134688934
S1131300C10280933707F52E630A3C2F0E947F3475
S1131310BD92730305025D16C89500000E94FF3458
S11313200E9404343A0EAFB0413A04F80E94C63425
S1131330F29275949294C4900E948D34BC90A09DB6
S11313400E945334F795C8951894E59CA41B21F882
S11313509C0700000E94FF340E940434B71ED490FE
S1131360A60881948294C0980E946A349C03400326
S11313708094099B4D9AAA5D25913003A094861E02
S1131380EE0391951C1000000E94FF340E94043467
S113139001F80894A895AFEF74F819990E945C3489
S11313A00E944034DD98DE1E3136521178172091A8
S11313B03A0237B00E9432342092490520944907FA
S11313C0D61A00000E94FF340E940434A8957C03BE
S11313D00E9453342B03382BFE1CD5942D980E9465
S11313E0533478945303D0FB5FEF6503AA24AF888A
S11313F080FECD328805AC9600000E94FF340E9426
S113140004340E948D348538BFEF4F03EA13800201
S11314100E943234B703719BC91F0E948D34A89572
S11314200596D7957F220E946A34A8953B84109331
S1131430A205F50200000E94FF340E940434990CB6
S1131440A24352949C0374FA255F2A5FFE3932EF5B
S113145025060E9432340E946A341419351AC8953C
S1131460C895931F852321270E947F3400000E9482
S1131470FF340E9404340E943234E7951A35620A1C
S11314802A227E92C7F962FD0D0150933A01B411EC
S113149061073F03C2E8D7038226A5810E947F34F7
S11314A0A895F20300000E94FF340E940434CD305A
S11314B0890E681BC79417950E944034DF3170FA77
S11314C06794AB2341940E945C340E947F34A094BF
S11314D00E948D340D930E945C3493990E94403491
S11314E00E94C63400000E94FF340E940434A7996D
S11314F0B195E594A19654990E94C634429E1094E5
S113150013260E946A34A11C220310940E945C34A6
S1131510A612A9037202F9031080319400000E94FC
S1131520FF340E940434235059020803D7943294A0
S11315301D272894378FA40E0E948D34D0940E94C6
S11315405C3471FC3C024812452B9E03A8952FEF96
S113155020936F0500000E94FF340E9404340E940F
S11315606A34DD0D1003986603AFA470227BA8953E
S113157083FDE99EE5903B06B8940594E5520090FE
S113158032082894E8945F72D69900000E94FF34D0
S11315900E9404340E9432347B2A0E94403471F940
S11315A06B990E948D343B984C9A719072F988948F
S11315B042FDB719D89BA8950B2B5C660E94533447
S11315C033F8A89500000E94FF340E9404344D03B0
S11315D08795B3FF0E945C3414907694DC42219585
S11315E06694349EEB0A640F8591659E2C21AE4966
S11315F01090B1026FEF4591E72800000E94FF347C
S11316000E940434A8958A1DED07DB987A8E0E9407
S113161040349131A895CF24A89522350E943234C4
S1131620308252910E94533444FF7290767D092790
S1131630240300000E94FF340E940434C6FABE1C36
S1131640A595C9990E947F345703F5950E945C348F
S1131650CC032A9094F8121A1803FE778295340367
S1131660A8950E9432340E947F343C1100000E94ED
S1131670FF340E9404340E94323439222A2F77988E
S11316808B9A8EA97191D1EBEB0391080E946A3475
S11316907698A713089A3608B0929A0431956695FD
S11316A0C5FF307400000E94FF340E94043480950A
S11316B00894F0955FEF059545FE0E9453345C91C4
S11316C00E9440340E945334D418DB47A9290E9455
S11316D05C340E9440340E9453345294B85550F8FC
S11316E0F29400000E94FF340E94043494990E94F2
S11316F08D34D1950E945C3487F8AD1901FF0B4CF1
S1131700D6981E0E0E948D34E4999FEF0E943234C5
S1131710B5915294D894B3038694580500000E945E
S1131720FF340E940434D1030DB4F220F321550197
S11317300E946A34581C0E947F34DB39D49BCF3713
S11317400E945C34A0940E946A340E945C34670353
S1131750376E7E0333E3059600000E94FF340E9437
S11317600434E7137802862B0E948D345C92C3778D
S1131770D1568B0A8B01449B0E945C34C5F95D23CE
S11317809C2302F97C220E945C34F903B894DB2088
S113179000000E94FF340E9404340FEF989AA89529
S11317A07C0EAB07457D42FDA895540355900B2450
S11317B05894B2953D280E945C340E944034632BB7
S11317C0F6940F5B0E94403400000E94FF340E9494
S11317D00434BB7F030680927F01CE03974D36818C
S11317E014FBD69B0E946A3457F8A9096FEF9C2119
S11317F01719A0918106B093C202F1B1A895C7FF51
S1131800A89500000E94FF340E9404340E3F5399AF
S1131810CB03E09035039694C0022F9D6BB62889C4
S11318200E948D342090FF01C895D695F29A519468
S1131830189A30220E948D34D485CF0E00000E9465
S1131840FF340E9404340000000000000000000087
S11318500000000000000000000000000000000084
S11318600000000000000000000000000000000074
S11318700000000000000000000000000000000064
S11318800000000000000000000000000000000054
S1136800000000000000FECFEF93FF93CF93DF93CF
S1136810AF93BF93E0911502F0911602D0E0C0E06F
S1136820BAE1A991A193BA95E1F7BF91AF91DF9134
S1136830CF91A193B193C193D193DF91CF91C193A0
S1136840D1930E9423341F910F91019311930DB79B
S11368501EB7019311930FB70193E0931502F093C0
S1136860160208950C9439340C943B3400000C94B3
S11368703F340C9434340C943634000000000895F2
S1136880F4E3EAE40994F4E3EDE409940000F4E3A6
S1136890E2E50994F4E3E3E4099400000000F4E37E
S11368A0E6E40994089503C003C0000004C0FCCFCB
S11368B0FCCF0000000008950E9463340E946534F8
S11368C008C0000005C004D00895FBCF00000000FC
S11368D008950895F4E3E5E709950BC00F920F902E
S11368E008950000F4E3EEE70994F4E3EEE6099575
S11368F0089500000000F4E3E5E7099508950E9477
S113690086340E94883408C0000005C004D008956D
S1136910FBCF00000000089508950894289418946B
S11369207894489438946894589401C08894F0F307
S1136930089408F0A89401C0A894F2F328940AF0EB
S1136940989401C09894F1F3189409F0F89401C054
S1136950F894F7F378940FF0C89401C0C894F4F352
S113696048940CF0B89401C0B894F3F338940BF045
S1136970C89401C0E894F6F368940EF0D89401C06A
S1136980D894F5F358940DF0D89408958894A89465
S11369909894F894C894B894E894D89401C008944E
S11369A0F0F7889408F4289401C02894F2F7A89486
S11369B00AF4189401C01894F1F7989409F478949F
S11369C001C07894F7F7F8940FF4489401C0489400
S11369D0F4F7C8940CF4389401C03894F3F7B894DD
S11369E00BF4689401C06894F6F7E8940EF4589494
S11369F001C05894F5F7D8940DF4D8940895DF9312
S1136A00EF93FF93DCE1F0E0E1E001900E941735A1
S1136A10DA95D9F7FF91EF91DF910D2E0E9417358A
S1136A200E2E0E9417350F2E0E94173508952F93AE
S1136A303F938F939F938091000790910107902536
S1136A4028E0E89497FF6894880F991F26F431E2B0
S1136A50832730E193272150A1F780930007909377
S1136A6001079F918F913F912F91089580E090E0CD
S1136A70DF91CF9108958F929F92AF92BF92CF9260
S1136A80DF92EF92FF92CF93DF93EC0168817981DB
S1136A908A819B81611571058105910521F464E268
S1136AA079ED8BE597E02DE133EF41E050E00E9472
S1136AB0973549015A019B01AC01A7EAB1E40E9450
S1136AC0B6356B017C01ACEEB4EFA50194010E94D4
S1136AD0C435DC01CB018C0D9D1DAE1DBF1DB7FF60
S1136AE003C00197A109B04888839983AA83BB8313
S1136AF09F77DF91CF91FF90EF90DF90CF90BF9081
S1136B00AF909F908F9008950E943B35089580E048
S1136B1091E00E943B350895A0E0B0E0809300012D
S1136B2090930101A0930201B09303010895052EEF
S1136B3097FB1EF400940E94AE3557FD07D00E94C7
S1136B40C93507FC03D04EF40C94AE3550954095EE
S1136B50309521953F4F4F4F5F4F08959095809505
S1136B60709561957F4F8F4F9F4F08950E94EB352D
S1136B70A59F900DB49F900DA49F800D911D11248D
S1136B800895B7FF0C94B6350E94B635821B930B5B
S1136B900895A1E21A2EAA1BBB1BFD010DC0AA1F5A
S1136BA0BB1FEE1FFF1FA217B307E407F50720F072
S1136BB0A21BB30BE40BF50B661F771F881F991FED
S1136BC01A9469F760957095809590959B01AC0136
S1136BD0BD01CF010895A29FB001B39FC001A39F3F
S1136BE0700D811D1124911DB29F700D811D112402
S10B6BF0911D0895F894FFCFF4
S1076BF80100000094
S9030000FC
