S00D00006372635F322E737265634E
S11300000C945A000C9464000C9464000C946400E6
S11300100C9464000C9464000C9464000C946400CC
S11300200C9464000C9464000C9464000C946400BC
S11300300C9464000C9464000C9464000C946400AC
S11300400C9464000C9464000C9464000C9464009C
S11300500C9464000C9464000C9464000C9464008C
S11300600C9464000C9464000C9464000C9464007C
S11300700C9464000C9464000C9464000C9464006C
S11300800C9464000C9464000C9464000C9464005C
S11300900C9464000C9464000C9464000C9464004C
S11300A00C9464000C9464000C9464000C9464003C
S11300B00C94640011241FBECFEFD8E0DEBFCDBF87
S11300C00E94A1000C94DA000C940000CF93DF93FB
S11300D000D000D0CDB7DEB78A837C836B838A815E
S11300E0882F90E0982F88279C018B819C81822700
S11300F093279C838B83198289818830C8F48B81F0
S11301009C8199235CF48B819C81880F991F21E247
S1130110822720E192279C838B8306C08B819C815C
S1130120880F991F9C838B8389818F5F8983E4CF98
S11301308B819C810F900F900F900F90DF91CF9146
S11301400895CF93DF9300D000D000D0CDB7DEB7B1
S11301501B821C8281E0898381E08A831E821D8246
S113016089818C838A818B838C81881F8B838D8189
S11301709E81BC018B810E9466009E838D838A814F
S11301808F5F8A838A81803408F4ECCF00008981F0
S11301908F5F89838981803408F4E2CF000080E096
S11301A090E026960FB6F894DEBF0FBECDBFDF9168
S10B01B0CF910895F894FFCFEC
S9030000FC
