S00C000043414C4C2E73726563FC
S11300000C945A000C9477000C9477000C947700AD
S11300100C9477000C9477000C9477000C94770080
S11300200C9477000C9477000C9477000C94770070
S11300300C9477000C9477000C9477000C94770060
S11300400C9477000C9477000C9477000C94770050
S11300500C9477000C9477000C9477000C94770040
S11300600C9477000C9477000C9477000C94770030
S11300700C9477000C9477000C9477000C94770020
S11300800C9477000C9477000C9477000C94770010
S11300900C9477000C9477000C9477000C94770000
S11300A00C9477000C9477000C9477000C947700F0
S11300B00C94770011241FBECFEFD8E0DEBFCDBF74
S11300C011E0A0E0B1E0E2E2F4E002C005900D929C
S11300D0A430B107D9F721E0A4E0B1E001C01D923A
S11300E0A630B207E1F70E9419010C940F020C9498
S11300F00000CF93DF9300D000D0CDB7DEB78A8362
S11301007C836B838A81882F90E0982F88279C01B9
S11301108B819C81822793279C838B83198289817D
S11301208830C8F48B819C8199235CF48B819C81F9
S1130130880F991F21E2822720E192279C838B83D9
S113014006C08B819C81880F991F9C838B83898136
S11301508F5F8983E4CF8B819C810F900F900F90E8
S11301600F90DF91CF910895CF93DF9300D0CDB757
S1130170DEB79A83898389819A81181619069CF4BB
S11301800C94C7000C94C90000000C94CD000C948E
S1130190C2000C94C4000000000089819A81019778
S11301A09A838983E8CF00000F900F90DF91CF915D
S11301B00895CF93DF9300D000D000D0CDB7DEB741
S11301C09C838B837E836D838B819C812D813E8177
S11301D0AC01842F952F622F03D0882F992F1BC039
S11301E000004F935F932F93482F592F262F2030D1
S11301F061F0622F6A95F4DF489F8001499F100DDA
S1130200589F100D1124C80102C081E090E02F9185
S11302105F916F91089500009A83898389819A81FF
S113022026960FB6F894DEBF0FBECDBFDF91CF91F7
S113023008950F931F93CF93DF9300D000D000D085
S1130240CDB7DEB788EA9CE10E94A1011A82198227
S11302501C821B8283E090E09E838D838EE190E07C
S11302600E94B400009104011091050163E070E064
S113027089E790E00E94D900B8010E947900909328
S113028005018093040180E090E026960FB6F8946F
S1130290DEBF0FBECDBFDF91CF911F910F910895A7
S11302A08F929F92AF92BF92CF92DF92EF92FF9282
S11302B0CF93DF93EC01688179818A819B816115F9
S11302C071058105910521F464E279ED8BE597E0F0
S11302D02DE133EF41E050E00E94AC0149015A01A5
S11302E09B01AC01A7EAB1E40E94CB016B017C0144
S11302F0ACEEB4EFA50194010E94D901DC01CB015D
S11303008C0D9D1DAE1DBF1DB7FF03C00197A10934
S1130310B04888839983AA83BB839F77DF91CF9169
S1130320FF90EF90DF90CF90BF90AF909F908F9011
S113033008950E945001089580E091E00E945001C8
S11303400895A0E0B0E08093000190930101A09390
S11303500201B09303010895052E97FB1EF4009447
S11303600E94C30157FD07D00E94DE0107FC03D0A1
S11303704EF40C94C30150954095309521953F4F10
S11303804F4F5F4F089590958095709561957F4F7D
S11303908F4F9F4F08950E940002A59F900DB49F18
S11303A0900DA49F800D911D11240895B7FF0C9406
S11303B0CB010E94CB01821B930B0895A1E21A2E5C
S11303C0AA1BBB1BFD010DC0AA1FBB1FEE1FFF1FF5
S11303D0A217B307E407F50720F0A21BB30BE40B45
S11303E0F50B661F771F881F991F1A9469F760958C
S11303F07095809590959B01AC01BD01CF01089546
S1130400A29FB001B39FC001A39F700D811D112451
S1130410911DB29F700D811D1124911D0895F894B2
S1050420FFCF08
S107042201000000D1
S9030000FC
